{
  "contractName": "Game",
  "abi": [
    {
      "inputs": [],
      "payable": false,
      "stateMutability": "nonpayable",
      "type": "constructor",
      "signature": "constructor"
    },
    {
      "constant": false,
      "inputs": [],
      "name": "start",
      "outputs": [],
      "payable": false,
      "stateMutability": "nonpayable",
      "type": "function",
      "signature": "0xbe9a6555"
    },
    {
      "constant": false,
      "inputs": [
        {
          "name": "_m_hash",
          "type": "bytes32"
        }
      ],
      "name": "commit_move",
      "outputs": [],
      "payable": false,
      "stateMutability": "nonpayable",
      "type": "function",
      "signature": "0xb8eca43d"
    },
    {
      "constant": false,
      "inputs": [
        {
          "name": "_move",
          "type": "uint256"
        },
        {
          "name": "_salt",
          "type": "uint256"
        }
      ],
      "name": "revealMove",
      "outputs": [],
      "payable": false,
      "stateMutability": "nonpayable",
      "type": "function",
      "signature": "0x5280fba0"
    }
  ],
  "bytecode": "0x6080604052600060035560016004556002600555600060065534801561002457600080fd5b5060006006819055506000600760006101000a81548160ff0219169083151502179055506102c8806100576000396000f3fe608060405260043610610057576000357c0100000000000000000000000000000000000000000000000000000000900463ffffffff1680635280fba01461005c578063b8eca43d146100a1578063be9a6555146100dc575b600080fd5b34801561006857600080fd5b5061009f6004803603604081101561007f57600080fd5b8101908080359060200190929190803590602001909291905050506100f3565b005b3480156100ad57600080fd5b506100da600480360360208110156100c457600080fd5b81019080803590602001909291905050506101e2565b005b3480156100e857600080fd5b506100f1610281565b005b60008214806101025750600182145b8061010d5750600282145b151561011857600080fd5b6000826002839060020a02019050600260003373ffffffffffffffffffffffffffffffffffffffff1673ffffffffffffffffffffffffffffffffffffffff1681526020019081526020016000205481604051602001808281526020019150506040516020818303038152906040528051906020012014151561019957600080fd5b82600860003373ffffffffffffffffffffffffffffffffffffffff1673ffffffffffffffffffffffffffffffffffffffff16815260200190815260200160002081905550505050565b600160003373ffffffffffffffffffffffffffffffffffffffff1673ffffffffffffffffffffffffffffffffffffffff16815260200190815260200160002060009054906101000a900460ff16151561023a57600080fd5b80600260003373ffffffffffffffffffffffffffffffffffffffff1673ffffffffffffffffffffffffffffffffffffffff1681526020019081526020016000208190555050565b600060065414151561029257600080fd5b600160068190555056fea165627a7a723058201b6e0ebdd0b58ca920a9a40b6d5c9f3d85b42e29f75310daa7a3a1bceb495ad60029",
  "source": "pragma solidity ^0.5.0;\n\ncontract Game {\n    address[] players;\n    mapping(address => bool) eligible;\n    mapping(address => bytes32) move_commitment;\n    uint MOVE_STEAL = 0;\n    uint MOVE_BLOCK = 1;\n    uint MOVE_SHARE = 2;\n    uint GAME_STATE = 0; // 0 just started, 1 commit move, 2 reveal move, 3 payout, 4 withdrawn\n    bool finished;\n    mapping(address=>uint256) move;\n\n    constructor() public {\n        GAME_STATE = 0;\n        finished = false;\n    }\n\n    function start() public {\n        require(GAME_STATE == 0);\n        GAME_STATE = 1; // start committing moves\n    }\n\n    function commit_move(bytes32 _m_hash) public {\n        require(eligible[msg.sender]);\n        move_commitment[msg.sender] = _m_hash;\n    }\n\n    function revealMove(uint256 _move, uint256 _salt) public{\n        require(_move == 0 || _move == 1 || _move == 2);\n        uint256 preimage = (_salt << 2) + _move;\n        require(keccak256(abi.encodePacked(preimage)) == move_commitment[msg.sender]);\n        move[msg.sender] = _move;\n    }\n}\n",
  "sourcePath": "/Users/ylee/truffle-react/contracts/Game.sol",
  "compiler": {
    "name": "solc",
    "version": "0.5.0+commit.1d4f565a.Emscripten.clang"
  },
  "schemaVersion": "3.0.1",
  "updatedAt": "2019-09-07T21:15:05.633Z",
  "devdoc": {
    "methods": {}
  },
  "userdoc": {
    "methods": {}
  }
}